:020000040800F2
:1000000000000220010C0008410A0008470A00080D
:100010004D0A0008530A0008590A000800000000B1
:10002000000000000000000000000000414F000838
:100030005F0A00080000000091510008F951000813
:10004000510C0008510C0008510C0008510C00081C
:10005000510C0008510C0008510C0008510C00080C
:10006000510C0008510C0008510C0008510C0008FC
:10007000510C0008510C0008510C0008510C0008EC
:10008000510C0008510C0008510C0008510C0008DC
:10009000510C0008510C0008510C0008510C0008CC
:1000A000510C0008510C0008510C0008510C0008BC
:1000B0006D0A0008510C0008510C0008510C000892
:1000C000510C0008510C0008510C0008510C00089C
:1000D000510C0008810A0008510C0008510C00085E
:1000E000510C0008510C0008510C0008510C00087C
:1000F000510C0008510C0008510C0008510C00086C
:10010000510C0008510C0008510C0008510C00085B
:10011000510C0008510C0008510C0008510C00084B
:10012000510C0008510C0008510C0008510C00083B
:10013000510C0008510C0008510C0008510C00082B
:10014000510C0008510C0008510C0008510C00081B
:10015000510C0008510C0008510C0008510C00080B
:10016000510C0008510C0008510C0008510C0008FB
:10017000510C0008510C0008510C00080000000050
:08018000510C0008510C0008AD
:1001900010B5054C237833B9044B13B10448AFF3C1
:1001A00000800123237010BD6C00002000000000BF
:1001B0007865000808B5034B1BB103490348AFF34A
:1001C000008008BD00000000700000207865000875
:1001D00001F0FF01102A2BDB10F0070F08D010F8F8
:1001E000013B013A8B422DD010F0070F42B3F6D1FC
:1001F000F0B441EA012141EA014122F007047FF015
:1002000000070023F0E80256083C85EA010586EA6B
:10021000010685FA47F5A3FA87F586FA47F6A5FAA7
:1002200087F68EB9EED1F0BC01F0FF0102F00702B3
:1002300032B110F8013B013A83EA010313B1F8D15E
:100240000020704701387047002D06BF354603383F
:10025000073815F0010F07D1013015F4807F02BF78
:10026000013015F4C03F0130F0BC0138704700BFC9
:1002700053B94AB9002908BF00281CBF4FF0FF310D
:100280004FF0FF3000F070B9ADF1080C6DE904CE0D
:1002900000F006F8DDF804E0DDE9022304B0704761
:1002A0002DE9F047089E0D4604460F46002B4AD123
:1002B0008A42944665D9B2FA82F343B102FA03FC4A
:1002C000C3F120029F4020FA02F217439C404FEAFC
:1002D0001C4E1FFA8CF5B7FBFEF1220C0EFB1177BA
:1002E00042EA074201FB05F090420AD91CEB0202E8
:1002F00001F1FF3780F01C81904240F219810239F0
:100300006244121AA4B2B2FBFEF00EFB102244EAC1
:10031000024400FB05F5A5420AD91CEB040400F1D8
:10032000FF3280F00781A54240F204816444023824
:1003300040EA0140641B00211EB1DC400023C6E9F5
:100340000043BDE8F0878B4208D9002E00F0ED8015
:100350000021C6E900050846BDE8F087B3FA83F13D
:10036000002949D1AB4202D3824200F2F880841ABC
:1003700065EB030201201746002EE2D0C6E90047D4
:10038000DFE702B9FFDEB2FA82F3002B40F0908083
:100390008A1A4FEA1C471FFA8CFE0121B2FBF7F5BF
:1003A00007FB1520220C42EA00420EFB05F09042AA
:1003B00008D91CEB020205F1FF3802D2904200F28C
:1003C000CB804546121AA4B2B2FBF7F007FB10220D
:1003D00044EA02440EFB00FEA64508D91CEB0404C7
:1003E00000F1FF3202D2A64500F2BB801046A4EB1A
:1003F0000E0440EA05409FE7C1F120078B4022FA36
:1004000007FC4CEA030C05FA01F420FA07F3FD405F
:100410004FEA1C492343B5FBF9F81FFA8CFE09FB90
:1004200018551C0C44EA054408FB0EF5A54202FAD7
:1004300001F200FA01F00BD91CEB040408F1FF3AB9
:1004400080F08880A54240F28580A8F102086444CB
:10045000641B9DB2B4FBF9F309FB134445EA044461
:1004600003FB0EFEA64508D91CEB040403F1FF357F
:100470006CD2A6456AD9023B644443EA0843A3FB15
:100480000295A4EB0E04AC42C846AE4656D353D0F8
:1004900056B1B0EB080264EB0E0404FA07F7CA4049
:1004A000CC401743C6E9007418460021BDE8F08728
:1004B000C3F1200102FA03FC20FA01F225FA01F14E
:1004C0009D402A434FEA1C471FFA8CFEB1FBF7F010
:1004D00007FB1015110C41EA054100FB0EF58D429A
:1004E00004FA03F408D91CEB010100F1FF382FD204
:1004F0008D422DD902386144491B92B2B1FBF7F508
:1005000007FB151142EA014205FB0EF1914208D9A1
:100510001CEB020205F1FF3816D2914214D9023DBC
:100520006244521A45EA004138E73146304608E74E
:100530003946E6E61046FBE64845A9D2B9EB020883
:1005400065EB0C0E013BA3E74546EAE72B4694E733
:100550004046D1E7D0467BE7023D624432E7084699
:100560000AE76444023842E7704700BF80B485B0B0
:1005700000AFF860B9607A60FB68074A1A60BB6830
:10058000064A1A607B6880221A6000BF1437BD4695
:100590005DF8047B704700BF88000020DC0000206D
:1005A00080B582B000AF7860391D4FF0FF33012273
:1005B000034801F05DFE7B6818460837BD4680BDE4
:1005C000DC020020B0B590B000AF00F043FB00F0BB
:1005D00047F800F0D9F800F0ADF81B4805F048F9ED
:1005E0000023BB630023FB6307F138030121184696
:1005F00002F06DFE0346154A1360154B07F11C040B
:100600001D460FCD0FC495E8070084E8070007F1E9
:100610001C030021184602F00EFE03460D4A13602B
:100620000D4B3C461D460FCD0FC495E8070084E8EE
:1006300007003B460021184602F0FDFD0346074A2D
:10064000136002F0F1FDFEE7906500082C03002026
:10065000B065000824030020D465000828030020AA
:1006600080B594B000AF07F1200330220021184676
:1006700005F053F907F10C0300221A605A609A60E2
:10068000DA601A610023BB60284B1B6C274A43F0D9
:1006900080531364254B1B6C03F08053BB60BB6815
:1006A00000237B60224B1B68214A43F48043136084
:1006B0001F4B1B6803F480437B607B6802233B6213
:1006C0000123FB6210233B630223BB630023FB6314
:1006D00008233B64A8237B640223BB640423FB64DC
:1006E00007F12003184600F007FE0346002B01D057
:1006F00000F0A9F80F23FB6002233B6100237B611C
:100700004FF4A053BB614FF48053FB6107F10C031E
:100710000521184601F068F80346002B01D000F0CF
:1007200092F800BF5037BD4680BD00BF0038024080
:100730000070004080B500AF114B124A1A60104B98
:100740004FF4E1325A600E4B00229A600C4B0022AB
:10075000DA600B4B00221A61094B0C225A61084BDC
:1007600000229A61064B0022DA61054801F030FD53
:100770000346002B01D000F066F800BF80BD00BF2B
:10078000DC0200200010014080B485B000AF0023DF
:10079000FB60174B1B6B164A43F004031363144BA7
:1007A0001B6B03F00403FB60FB680023BB60104B72
:1007B0001B6B0F4A43F0800313630D4B1B6B03F05D
:1007C0008003BB60BB6800237B60094B1B6B084A3E
:1007D00043F001031363064B1B6B03F001037B60C3
:1007E0007B6800BF1437BD465DF8047B704700BFCF
:1007F0000038024080B483B000AF7860FEE70000AC
:1008000080B582B000AF7860054B1B684FF47A6109
:10081000184602F08FFD034805F02AF8F4E700BF00
:100820002C030020F065000880B582B000AF78602E
:100830007B681B68B3F1804F01D100F02DFA00BF37
:100840000837BD4680BD80B400AF72B600BFFEE77A
:1008500080B582B000AF00237B60124B5B6C114A05
:1008600043F4804353640F4B5B6C03F480437B6021
:100870007B6800233B600B4B1B6C0A4A43F08053A0
:100880001364084B1B6C03F080533B603B680022F1
:100890000F216FF0010000F0D7FA00BF0837BD4606
:1008A00080BD00BF0038024080B58AB000AF7860DC
:1008B00007F1140300221A605A609A60DA601A6124
:1008C0007B681B681D4A934234D100233B611C4B5B
:1008D0005B6C1B4A43F010035364194B5B6C03F0D1
:1008E00010033B613B690023FB60154B1B6B144AF3
:1008F00043F001031363124B1B6B03F00103FB6016
:10090000FB684FF4C0637B610223BB610023FB6182
:1009100003233B6207237B6207F11403194609484E
:1009200000F04EFB00220521252000F08DFA252045
:1009300000F0A6FA00BF2837BD4680BD0010014078
:10094000003802400000024080B58EB000AF7860F1
:100950000023FB620023BB620023FB60344B1B6C53
:10096000334A43F001031364314B1B6C03F0010362
:10097000FB60FB6807F1100207F1140311461846EB
:1009800001F052F93B6AFB62FB6A002B03D101F0D4
:1009900023F9786304E001F01FF903465B007B63F1
:1009A0007B6B244AA2FB03239B0C013BBB62224BC3
:1009B0004FF080421A60204B40F2E732DA601E4A64
:1009C000BB6A53601C4B00221A611B4B00229A60C9
:1009D000194B00229A61184801F058F9034687F82C
:1009E000333097F83330002B1BD1134801F0A8F9AE
:1009F000034687F8333097F83330002B11D11C2091
:100A000000F03EFA7B680F2B08D8002279681C2082
:100A100000F01AFA094A7B68136002E0012387F8A4
:100A2000333097F8333018463837BD4680BD00BFA5
:100A30000038024083DE1B43300300200400002006
:100A400080B400AFFEE780B400AFFEE780B400AF33
:100A5000FEE780B400AFFEE780B400AFFEE780B4ED
:100A600000AF00BFBD465DF8047B704780B500AFA6
:100A7000024801F0D5F900BF80BD00BF300300205F
:100A800080B500AF024801F07FFC00BF80BD00BF11
:100A9000DC02002080B586B000AFF860B9607A60F3
:100AA00000237B610AE0AFF300800146BB685A1C5B
:100AB000BA60CAB21A707B6901337B617A697B685C
:100AC0009A42F0DB7B6818461837BD4680BD80B57A
:100AD00086B000AFF860B9607A6000237B6109E0FE
:100AE000BB685A1CBA601B781846FFF759FD7B6932
:100AF00001337B617A697B689A42F1DB7B68184637
:100B00001837BD4680BD80B483B000AF78604FF029
:100B1000FF3318460C37BD465DF8047B704780B440
:100B200083B000AF786039603B684FF400525A6080
:100B3000002318460C37BD465DF8047B704780B42F
:100B400083B000AF7860012318460C37BD465DF8CE
:100B5000047B704780B485B000AFF860B9607A60FC
:100B6000002318461437BD465DF8047B704700002B
:100B700080B586B000AF7860144A154BD31A7B61FC
:100B80007B693B61134B1B68002B02D1114B124A4E
:100B90001A60104B1A687B6813443A699A4207D26C
:100BA00004F00AFF03460C221A604FF0FF3309E0FD
:100BB000084B1B68FB60074B1A687B681344054AA7
:100BC0001360FB6818461837BD4680BD0000022040
:100BD00000040000780300202042002080B400AF11
:100BE000064BD3F88830054A43F47003C2F88830C6
:100BF00000BFBD465DF8047B704700BF00ED00E01C
:100C0000DFF834D0FFF7EAFF0C480D490D4A002306
:100C100002E0D458C4500433C4188C42F9D30A4AB1
:100C20000A4C002301E013600432A242FBD304F01B
:100C3000C9FEFFF7C7FC704700000220000000203B
:100C40006C0000206C6600086C0000202042002030
:100C5000FEE7000080B500AF0E4B1B680D4A43F461
:100C6000007313600B4B1B680A4A43F480631360E4
:100C7000084B1B68074A43F480731360032000F09D
:100C8000D8F80F20FFF760FEFFF7E2FD00231846BB
:100C900080BD00BF003C024080B400AF064B1B7813
:100CA0001A46064B1B681344044A136000BFBD4636
:100CB0005DF8047B704700BF080000207C03002023
:100CC00080B400AF034B1B681846BD465DF8047B3B
:100CD000704700BF7C03002080B485B000AF78600F
:100CE0007B6803F00703FB600C4BDB68BB60BA68F2
:100CF0004FF6FF031340BB60FB681A02BB68134347
:100D000043F0BF6343F40033BB60044ABB68D36065
:100D100000BF1437BD465DF8047B704700ED00E06E
:100D200080B400AF044BDB681B0A03F007031846CE
:100D3000BD465DF8047B704700ED00E080B483B0F1
:100D400000AF0346FB7197F90730002B0BDBFB79F3
:100D500003F01F02074997F907305B09012000FAE9
:100D600002F241F8232000BF0C37BD465DF8047B3A
:100D7000704700BF00E100E080B483B000AF0346DD
:100D80003960FB7197F90730002B0ADB3B68DAB258
:100D90000C4997F907301201D2B20B4483F80023B3
:100DA0000AE03B68DAB20849FB7903F00F03043B21
:100DB0001201D2B20B441A7600BF0C37BD465DF863
:100DC000047B704700E100E000ED00E080B489B0F2
:100DD00000AFF860B9607A60FB6803F00703FB615D
:100DE000FB69C3F10703042B28BF0423BB61FB6924
:100DF0000433062B02D9FB69033B00E000237B612F
:100E00004FF0FF32BB6902FA03F3DA43BB681A40C2
:100E10007B699A404FF0FF317B6901FA03F3D943B4
:100E20007B680B40134318462437BD465DF8047BAE
:100E3000704780B582B000AF78607868FFF74CFFEC
:100E400000BF0837BD4680BD80B586B000AF034601
:100E5000B9607A60FB7300237B61FFF761FF786103
:100E60007A68B9687869FFF7B1FF024697F90F30E1
:100E700011461846FFF780FF00BF1837BD4680BDFA
:100E800080B582B000AF0346FB7197F90730184672
:100E9000FFF754FF00BF0837BD4680BD80B584B062
:100EA00000AF78607B689B6DFB60FFF709FFB8605F
:100EB0007B6893F83530DBB2022B08D07B68802248
:100EC0005A657B68002283F83420012352E07B6856
:100ED0001B681A687B681B6822F016021A607B6820
:100EE0001B685A697B681B6822F080025A617B6824
:100EF0001B6C002B03D17B689B6C002B07D07B689D
:100F00001B681A687B681B6822F008021A607B68FD
:100F10001B681A687B681B6822F001021A6013E0E4
:100F2000FFF7CEFE0246BB68D31A052B0CD97B68AF
:100F300020225A657B68032283F835207B680022D3
:100F400083F83420032315E07B681B681B6803F0DB
:100F50000103002BE4D17B68DB6D3F229A40FB68E4
:100F60009A607B68012283F835207B68002283F831
:100F70003420002318461037BD4680BD80B483B0AE
:100F800000AF78607B6893F83530DBB2022B04D079
:100F90007B6880225A6501230CE07B68052283F878
:100FA00035207B681B681A687B681B6822F0010289
:100FB0001A60002318460C37BD465DF8047B704765
:100FC00080B489B000AF7860396000237B61002372
:100FD0003B610023BB610023FB616BE10122FB69E4
:100FE00002FA03F37B613B681B687A6913403B613B
:100FF0003A697B699A4240F05A813B685B6803F02A
:101000000303012B05D03B685B6803F00303022B4D
:1010100030D17B689B68BB61FB695B00032202FAED
:1010200003F3DB43BA691340BB613B68DA68FB69D1
:101030005B0002FA03F3BA691343BB617B68BA69C8
:101040009A607B685B68BB610122FB6902FA03F36B
:10105000DB43BA691340BB613B685B681B0903F063
:101060000102FB6902FA03F3BA691343BB617B68AF
:10107000BA695A603B685B6803F00303032B17D01F
:101080007B68DB68BB61FB695B00032202FA03F348
:10109000DB43BA691340BB613B689A68FB695B003C
:1010A00002FA03F3BA691343BB617B68BA69DA6079
:1010B0003B685B6803F00303022B23D1FB69DA086A
:1010C0007B68083253F82230BB61FB6903F00703E9
:1010D0009B000F2202FA03F3DB43BA691340BB61A2
:1010E0003B681A69FB6903F007039B0002FA03F3EC
:1010F000BA691343BB61FB69DA087B680832B969D6
:1011000043F822107B681B68BB61FB695B0003220C
:1011100002FA03F3DB43BA691340BB613B685B68C7
:1011200003F00302FB695B0002FA03F3BA6913439D
:10113000BB617B68BA691A603B685B6803F4403343
:10114000002B00F0B4800023FB60604B5B6C5F4AB7
:1011500043F4804353645D4B5B6C03F48043FB605A
:10116000FB685B4AFB699B08023352F82330BB6182
:10117000FB6903F003039B000F2202FA03F3DB4336
:10118000BA691340BB617B68524A93422BD07B689B
:10119000514A934225D07B68504A93421FD07B68C6
:1011A0004F4A934219D07B684E4A934213D07B68D2
:1011B0004D4A93420DD07B684C4A934207D07B68DE
:1011C0004B4A934201D107230EE008230CE006238B
:1011D0000AE0052308E0042306E0032304E00223D9
:1011E00002E0012300E00023FA6902F0030292000A
:1011F0009340BA691343BB613549FB699B080233CD
:10120000BA6941F823203B4B9B68BB613B69DB43D8
:10121000BA691340BB613B685B6803F48013002B21
:1012200003D0BA693B691343BB61324ABB6993601F
:10123000304BDB68BB613B69DB43BA691340BB6180
:101240003B685B6803F40013002B03D0BA693B6969
:101250001343BB61274ABB69D360264B5B68BB6104
:101260003B69DB43BA691340BB613B685B6803F4CD
:101270000033002B03D0BA693B691343BB611D4A9D
:10128000BB6953601B4B1B68BB613B69DB43BA699D
:101290001340BB613B685B6803F48033002B03D0D1
:1012A000BA693B691343BB61124ABB691360FB69AE
:1012B0000133FB61FB690F2B7FF690AE00BF00BFCF
:1012C0002437BD465DF8047B704700BF00380240FC
:1012D00000380140000002400004024000080240C3
:1012E000000C0240001002400014024000180240AE
:1012F000001C0240003C014080B586B000AF786021
:101300007B68002B01D1012367E27B681B6803F037
:101310000103002B75D0884B9B6803F00C03042B52
:101320000CD0854B9B6803F00C03082B12D1824B29
:101330005B6803F48003B3F5800F0BD17E4B1B6811
:1013400003F40033002B5BD07B685B68002B57D124
:10135000012342E27B685B68B3F5803F06D1764BA0
:101360001B68754A43F4803313601DE07B685B683B
:10137000B3F5A02F0CD1704B1B686F4A43F4802348
:1013800013606D4B1B686C4A43F4803313600BE0B1
:10139000694B1B68684A23F480331360664B1B68F3
:1013A000654A23F4802313607B685B68002B13D0AD
:1013B000FFF786FC386108E0FFF782FC02463B69D4
:1013C000D31A642B01D9032307E25B4B1B6803F498
:1013D0000033002BF0D014E0FFF772FC386108E016
:1013E000FFF76EFC02463B69D31A642B01D9032335
:1013F000F3E1514B1B6803F40033002BF0D100E004
:1014000000BF7B681B6803F00203002B63D04A4BCC
:101410009B6803F00C03002B0BD0474B9B6803F039
:101420000C03082B1CD1444B5B6803F48003002B96
:1014300016D1414B1B6803F00203002B05D07B68DB
:10144000DB68012B01D00123C7E13B4B1B6823F074
:10145000F8027B681B69DB00374913430B603AE0F5
:101460007B68DB68002B20D0344B01221A60FFF729
:1014700027FC386108E0FFF723FC02463B69D31ADA
:10148000022B01D90323A8E12B4B1B6803F00203B5
:10149000002BF0D0284B1B6823F0F8027B681B69F7
:1014A000DB00254913430B6015E0244B00221A6032
:1014B000FFF706FC386108E0FFF702FC02463B69D3
:1014C000D31A022B01D9032387E11B4B1B6803F0BE
:1014D0000203002BF0D17B681B6803F00803002B8C
:1014E00036D07B685B69002B16D0154B01221A6041
:1014F000FFF7E6FB386108E0FFF7E2FB02463B69D5
:10150000D31A022B01D9032367E10B4B5B6F03F066
:101510000203002BF0D01BE0094B00221A60FFF7FA
:10152000CFFB38610EE0FFF7CBFB02463B69D31AD5
:10153000022B07D9032350E1003802400000474244
:10154000800E4742884B5B6F03F00203002BEAD109
:101550007B681B6803F00403002B00F097800023D6
:10156000FB75814B1B6C03F08053002B0FD10023C4
:10157000BB607D4B1B6C7C4A43F0805313647A4BF9
:101580001B6C03F08053BB60BB680123FB75774B7A
:101590001B6803F48073002B18D1744B1B68734ACB
:1015A00043F480731360FFF78BFB386108E0FFF7AB
:1015B00087FB02463B69D31A022B01D903230CE1B6
:1015C0006A4B1B6803F48073002BF0D07B689B6828
:1015D000012B06D1644B1B6F634A43F00103136771
:1015E0001CE07B689B68052B0CD15F4B1B6F5E4A30
:1015F00043F0040313675C4B1B6F5B4A43F001032A
:1016000013670BE0584B1B6F574A23F00103136716
:10161000554B1B6F544A23F0040313677B689B6888
:10162000002B15D0FFF74CFB38610AE0FFF748FBB1
:1016300002463B69D31A41F28832934201D903230F
:10164000CBE0494B1B6F03F00203002BEED014E0FC
:10165000FFF736FB38610AE0FFF732FB02463B69D1
:10166000D31A41F28832934201D90323B5E03E4BAD
:101670001B6F03F00203002BEED1FB7D012B05D184
:10168000394B1B6C384A23F0805313647B689B6989
:10169000002B00F0A180344B9B6803F00C03082B57
:1016A0005CD07B689B69022B41D1314B00221A60D0
:1016B000FFF706FB386108E0FFF702FB02463B69D3
:1016C000D31A022B01D9032387E0274B1B6803F0B1
:1016D0000073002BF0D17B68DA697B681B6A1A43C0
:1016E0007B685B6A9B011A437B689B6A5B08013BD2
:1016F0001B041A437B68DB6A1B061B4913434B60C0
:101700001B4B01221A60FFF7DBFA386108E0FFF794
:10171000D7FA02463B69D31A022B01D903235CE0B6
:10172000114B1B6803F00073002BF0D054E0104BFA
:1017300000221A60FFF7C4FA386108E0FFF7C0FA28
:1017400002463B69D31A022B01D9032345E0064B1D
:101750001B6803F00073002BF0D13DE07B689B69B0
:10176000012B07D1012338E000380240007000400F
:10177000600047421B4B5B68FB607B689B69012BE9
:1017800028D0FB6803F480027B68DB699A4221D190
:10179000FB6803F03F027B681B6A9A421AD1FA6821
:1017A00047F6C07313407A68526A9201934211D18E
:1017B000FB6803F440327B689B6A5B08013B1B04B7
:1017C0009A4207D1FB6803F070627B68DB6A1B06F4
:1017D0009A4201D0012300E0002318461837BD4685
:1017E00080BD00BF0038024080B584B000AF786093
:1017F00039607B68002B01D10123CCE0684B1B686A
:1018000003F007033A689A420CD9654B3A68D2B2A2
:101810001A70634B1B6803F007033A689A4201D0C1
:101820000123B8E07B681B6803F00203002B20D083
:101830007B681B6803F00403002B05D0594B9B68A1
:10184000584A43F4E05393607B681B6803F0080335
:10185000002B05D0534B9B68524A43F4604393607E
:10186000504B9B6823F0F0027B689B684D49134303
:101870008B607B681B6803F00103002B44D07B68FE
:101880005B68012B07D1474B1B6803F40033002B27
:1018900019D101237FE07B685B68022B03D07B6852
:1018A0005B68032B07D13F4B1B6803F00073002BD1
:1018B00009D101236FE03B4B1B6803F00203002BAF
:1018C00001D1012367E0374B9B6823F003027B685B
:1018D0005B68344913438B60FFF7F2F9F8600AE064
:1018E000FFF7EEF90246FB68D31A41F288329342C1
:1018F00001D903234FE02B4B9B6803F00C027B685C
:101900005B689B009A42EBD1254B1B6803F00703F1
:101910003A689A420CD2224B3A68D2B21A70204BE3
:101920001B6803F007033A689A4201D0012332E0B2
:101930007B681B6803F00403002B08D0194B9B68DD
:1019400023F4E0527B68DB68164913438B607B68A5
:101950001B6803F00803002B09D0124B9B6823F48B
:1019600060427B681B69DB000E4913438B6000F00B
:1019700021F802460B4B9B681B0903F00F030A4931
:10198000CB5C22FA03F3094A1360094B1B68184623
:10199000FEF7DAFF002318461037BD4680BD00BFB2
:1019A000003C0240003802401066000800000020A1
:1019B000040000202DE9B04F94B000AF00237B64F9
:1019C0000023FB6400233B640023BB64794B9B68CA
:1019D00003F00C03082B0DD0082B00F2E180002B44
:1019E00002D0042B03D0DBE0734BBB64DBE0734B12
:1019F000BB64D8E06F4B5B6803F03F037B646D4BC7
:101A00005B6803F48003002B63D06A4B5B689B091F
:101A10000022BB63FA63BB6BC3F308033B63002381
:101A20007B63D7E90C4522462B464FF000004FF070
:101A30000001590141EAD261500102460B4621469C
:101A4000511A3961294663EB01037B614FF00002B3
:101A50004FF00003D7E904AB59468B01514643EAE6
:101A6000916351468A015146B2EB0108594663EB36
:101A700001094FF000024FF000034FEAC90343EAA7
:101A800058734FEAC80290469946234618EB030361
:101A9000BB602B4649EB0303FB604FF000024FF0A5
:101AA0000003D7E9024529464B02214643EAD153B8
:101AB00021464A02104619467B6C0022BB62FA623C
:101AC000D7E90A23FEF7D4FB02460B461346FB6414
:101AD00058E0384B5B689B09002218461146C0F35A
:101AE00008033B6200237B62D7E9088942464B46E4
:101AF0004FF000004FF00001590141EAD26150015E
:101B000002460B464146B2EB010A494663EB010B24
:101B10004FF000024FF000034FEA8B1343EA9A6341
:101B20004FEA8A12B2EB0A0463EB0B054FF0000296
:101B30004FF00003EB0043EA5473E20014461D46E5
:101B40004346E3183B604B4645EB03037B604FF095
:101B500000024FF00003D7E9004529468B022146D9
:101B600043EA915321468A02104619467B6C0022B3
:101B7000BB61FA61D7E90623FEF77AFB02460B4602
:101B80001346FB640B4B5B681B0C03F00303013330
:101B90005B003B64FA6C3B6CB2FBF3F3BB6402E0AA
:101BA000054BBB6400BFBB6C18465037BD46BDE853
:101BB000B08F00BF003802400024F40000127A0009
:101BC00080B400AF034B1B681846BD465DF8047B2C
:101BD000704700BF0000002080B500AFFFF7F0FFA6
:101BE0000246054B9B689B0A03F007030349CB5C45
:101BF00022FA03F3184680BD003802402066000830
:101C000080B500AFFFF7DCFF0246054B9B685B0B1E
:101C100003F007030349CB5C22FA03F3184680BDA7
:101C2000003802402066000880B483B000AF7860BE
:101C300039607B680F221A60124B9B6803F0030225
:101C40007B685A600F4B9B6803F0F0027B689A60D8
:101C50000C4B9B6803F4E0527B68DA60094B9B688D
:101C6000DB0803F4E0527B681A61074B1B6803F042
:101C700007023B681A6000BF0C37BD465DF8047B65
:101C8000704700BF00380240003C024080B582B07F
:101C900000AF78607B68002B01D1012341E07B68B5
:101CA00093F83D30DBB2002B06D17B68002283F82D
:101CB0003C20786800F039F87B68022283F83D20E8
:101CC0007B681A687B6804331946104600F0C0F937
:101CD0007B68012283F846207B68012283F83E203E
:101CE0007B68012283F83F207B68012283F8402033
:101CF0007B68012283F841207B68012283F842201F
:101D00007B68012283F843207B68012283F844200A
:101D10007B68012283F845207B68012283F83D20FF
:101D2000002318460837BD4680BD80B483B000AF9D
:101D3000786000BF0C37BD465DF8047B704700003B
:101D400080B485B000AF78607B6893F83D30DBB23B
:101D5000012B01D001234EE07B68022283F83D2055
:101D60007B681B68DA687B681B6842F00102DA60F6
:101D70007B681B68234A934222D07B681B68B3F1BF
:101D8000804F1DD07B681B681F4A934218D07B6828
:101D90001B681E4A934213D07B681B681C4A9342FF
:101DA0000ED07B681B681B4A934209D07B681B6876
:101DB000194A934204D07B681B68184A934211D198
:101DC0007B681B689B6803F00703FB60FB68062BBE
:101DD00010D07B681B681A687B681B6842F00102A0
:101DE0001A6007E07B681B681A687B681B6842F012
:101DF00001021A60002318461437BD465DF8047BC3
:101E0000704700BF0000014000040040000800408F
:101E1000000C004000040140004001400018004058
:101E200080B584B000AF78607B681B68DB68FB60BE
:101E30007B681B681B69BB60BB6803F00203002B57
:101E400020D0FB6803F00203002B1BD07B681B68CB
:101E50006FF002021A617B6801221A777B681B68A7
:101E60009B6903F00303002B03D0786800F0D2F8DD
:101E700005E0786800F0C4F8786800F0D5F87B6871
:101E800000221A77BB6803F00403002B20D0FB6804
:101E900003F00403002B1BD07B681B686FF0040267
:101EA0001A617B6802221A777B681B689B6903F4BE
:101EB0004073002B03D0786800F0ACF805E0786838
:101EC00000F09EF8786800F0AFF87B6800221A777F
:101ED000BB6803F00803002B20D0FB6803F0080365
:101EE000002B1BD07B681B686FF008021A617B68AF
:101EF00004221A777B681B68DB6903F00303002B5D
:101F000003D0786800F086F805E0786800F078F88B
:101F1000786800F089F87B6800221A77BB6803F0C4
:101F20001003002B20D0FB6803F01003002B1BD004
:101F30007B681B686FF010021A617B6808221A77B1
:101F40007B681B68DB6903F44073002B03D078685F
:101F500000F060F805E0786800F052F8786800F06A
:101F600063F87B6800221A77BB6803F00103002B3B
:101F70000CD0FB6803F00103002B07D07B681B68C3
:101F80006FF001021A617868FEF74EFCBB6803F03F
:101F90008003002B0CD0FB6803F08003002B07D0DC
:101FA0007B681B686FF080021A61786800F006F9A0
:101FB000BB6803F04003002B0CD0FB6803F0400328
:101FC000002B07D07B681B686FF040021A617868AD
:101FD00000F034F8BB6803F02003002B0CD0FB6842
:101FE00003F02003002B07D07B681B686FF02002F2
:101FF0001A61786800F0D8F800BF1037BD4680BD80
:1020000080B483B000AF786000BF0C37BD465DF888
:10201000047B704780B483B000AF786000BF0C379A
:10202000BD465DF8047B704780B483B000AF786034
:1020300000BF0C37BD465DF8047B704780B483B0A9
:1020400000AF786000BF0C37BD465DF8047B704779
:1020500080B485B000AF786039607B681B68FB6036
:102060007B68464A934213D07B68B3F1804F0FD010
:102070007B68434A93420BD07B68424A934207D025
:102080007B68414A934203D07B68404A934208D11F
:10209000FB6823F07003FB603B685B68FA681343DE
:1020A000FB607B68354A93422BD07B68B3F1804F4D
:1020B00027D07B68324A934223D07B68314A9342CF
:1020C0001FD07B68304A93421BD07B682F4A9342D3
:1020D00017D07B682E4A934213D07B682D4A9342D7
:1020E0000FD07B682C4A93420BD07B682B4A9342DB
:1020F00007D07B682A4A934203D07B68294A9342DF
:1021000008D1FB6823F44073FB603B68DB68FA6826
:102110001343FB60FB6823F080023B685B69134359
:10212000FB607B68FA681A603B689A687B68DA62D1
:102130003B681A687B689A627B68104A934203D0B6
:102140007B68124A934203D13B681A697B681A6321
:102150007B6801225A617B681B6903F00103012B34
:1021600005D17B681B6923F001027B681A6100BFFF
:102170001437BD465DF8047B704700BF0000014086
:102180000004004000080040000C00400004014032
:102190000040014000440140004801400018004058
:1021A000001C00400020004080B483B000AF786085
:1021B00000BF0C37BD465DF8047B704780B483B028
:1021C00000AF786000BF0C37BD465DF8047B7047F8
:1021D00080B582B000AF78607B68002B01D101230D
:1021E00042E07B6893F84130DBB2002B06D17B687C
:1021F000002283F840207868FEF756FB7B68242293
:1022000083F841207B681B68DA687B681B6822F4CE
:102210000052DA60786800F069FD7B681B681A6913
:102220007B681B6822F490421A617B681B685A69BC
:102230007B681B6822F02A025A617B681B68DA6897
:102240007B681B6842F40052DA607B6800225A64A3
:102250007B68202283F841207B68202283F842207B
:102260007B6800225A63002318460837BD4680BDAC
:1022700080B58AB002AFF860B9603B601346FB805E
:1022800000237B61FB6893F84130DBB2202B75D1D2
:10229000BB68002B02D0FB88002B01D101236EE02C
:1022A000FB6800225A64FB68212283F84120FEF774
:1022B00007FD7861FB68FA889A84FB68FA88DA84FB
:1022C000FB689B68B3F5805F08D1FB681B69002B36
:1022D00004D10023FB61BB68BB6103E0BB68FB6109
:1022E0000023BB612EE03B6800937B6900228021C4
:1022F000F86800F005FB0346002B05D0FB682022A0
:1023000083F8412003233AE0FB69002B0BD1BB6922
:102310001B881A46FB681B68C2F308025A60BB6937
:102320000233BB6107E0FB691A78FB681B685A60DF
:10233000FB690133FB61FB68DB8C9BB2013B9AB20A
:10234000FB68DA84FB68DB8C9BB2002BCBD13B684B
:1023500000937B6900224021F86800F0D1FA03461F
:10236000002B05D0FB68202283F84120032306E0E0
:10237000FB68202283F84120002300E00223184656
:102380002037BD4680BD000080B5BAB000AF786090
:102390007B681B681B68C7F8E4307B681B68DB68D8
:1023A000C7F8E0307B681B685B69C7F8DC30002346
:1023B000C7F8D8300023C7F8D430D7F8E43003F09A
:1023C0000F03C7F8D830D7F8D830002B0FD1D7F883
:1023D000E43003F02003002B09D0D7F8E03003F0FD
:1023E0002003002B03D0786800F0C2FB5BE2D7F833
:1023F000D830002B00F0DE80D7F8DC3003F001038A
:10240000002B06D1D7F8E03003F49073002B00F0D6
:10241000D180D7F8E43003F00103002B0BD0D7F8BC
:10242000E03003F48073002B05D07B685B6C43F0D5
:1024300001027B685A64D7F8E43003F00403002BF0
:102440000BD0D7F8DC3003F00103002B05D07B68FC
:102450005B6C43F002027B685A64D7F8E43003F007
:102460000203002B0BD0D7F8DC3003F00103002B64
:1024700005D07B685B6C43F004027B685A64D7F834
:10248000E43003F00803002B11D0D7F8E03003F05C
:102490002003002B05D1D7F8DC3003F00103002B1B
:1024A00005D07B685B6C43F008027B685A647B68EC
:1024B0005B6C002B00F0F281D7F8E43003F02003CE
:1024C000002B08D0D7F8E03003F02003002B02D017
:1024D000786800F04DFB7B681B685B6903F0400384
:1024E000402B0CBF01230023DBB2C7F8D4307B683C
:1024F0005B6C03F00803002B03D1D7F8D430002B1A
:102500004FD0786800F055FA7B681B685B6903F070
:102510004003402B41D17B681B681433C7F89C30C3
:10252000D7F89C3053E8003FC7F89830D7F8983078
:1025300023F04003C7F8D0307B681B681433D7F80A
:10254000D020C7F8A820C7F8A430D7F8A410D7F82F
:10255000A82041E80023C7F8A030D7F8A030002B0E
:10256000D9D17B68DB6B002B13D07B68DB6B7E4A99
:102570001A657B68DB6B1846FEF700FD0346002BEF
:1025800016D07B68DB6B1B6D7A68D26B1046984760
:102590000EE0786800F09EF90AE0786800F09AF999
:1025A00006E0786800F096F97B6800225A6475E1CD
:1025B00000BF73E17B681B6B012B40F04F81D7F8A4
:1025C000E43003F01003002B00F04881D7F8E0302E
:1025D00003F01003002B00F041810023BB607B68F7
:1025E0001B681B68BB607B681B685B68BB60BB6863
:1025F0007B681B685B6903F04003402B40F0B680AA
:102600007B68DB6B1B685B68A7F8BE30B7F8BE3031
:10261000002B00F045817B689B8DB7F8BE209A4265
:1026200080F03E817B68B7F8BE20DA857B68DB6B83
:10263000DB69B3F5807F00F088807B681B680C3312
:10264000C7F88830D7F8883053E8003FC7F884309F
:10265000D7F8843023F48073C7F8B8307B681B68E0
:102660000C33D7F8B820C7F89420C7F89030D7F8C3
:102670009010D7F8942041E80023C7F88C30D7F8A1
:102680008C30002BD9D17B681B6814337B677B6F40
:1026900053E8003F3B673B6F23F00103C7F8B430BA
:1026A0007B681B681433D7F8B420C7F88020FB6719
:1026B000F96FD7F8802041E80023BB67BB6F002B80
:1026C000E1D17B681B6814333B663B6E53E8003FE7
:1026D000FB65FB6D23F04003C7F8B0307B681B68D7
:1026E0001433D7F8B020FA66BB66B96EFA6E41E8CB
:1026F00000237B667B6E002BE3D17B68202283F86E
:1027000042207B6800221A637B681B680C33FB64E1
:10271000FB6C53E8003FBB64BB6C23F01003C7F8AD
:10272000AC307B681B680C33D7F8AC20BA657B658E
:10273000796DBA6D41E800233B653B6D002BE3D119
:102740007B68DB6B1846FEF7A9FB7B6802225A63A5
:102750007B689A8D7B68DB8D9BB2D31A9BB219463E
:10276000786800F0C1F89BE0792A00087B689A8DB0
:102770007B68DB8D9BB2D31AA7F8CE307B68DB8DEC
:102780009BB2002B00F08E80B7F8CE30002B00F00B
:1027900089807B681B680C33BB63BB6B53E8003FCD
:1027A0007B637B6B23F49073C7F8C8307B681B682E
:1027B0000C33D7F8C8207A643B64396C7A6C41E8F2
:1027C0000023FB63FB6B002BE3D17B681B68143396
:1027D0007B627B6A53E8003F3B623B6A23F0010364
:1027E000C7F8C4307B681B681433D7F8C4203A6339
:1027F000FB62F96A3A6B41E80023BB62BB6A002BBB
:10280000E3D17B68202283F842207B6800221A6390
:102810007B681B680C333B613B6953E8003FFB60FE
:10282000FB6823F01003C7F8C0307B681B680C33CB
:10283000D7F8C020FA61BB61B969FA6941E80023A1
:102840007B617B69002BE3D17B6802225A63B7F876
:10285000CE301946786800F047F823E0D7F8E43026
:1028600003F08003002B09D0D7F8E03003F0800399
:10287000002B03D0786800F013F914E0D7F8E430A7
:1028800003F04003002B0ED0D7F8E03003F04003F4
:10289000002B08D0786800F053F904E000BF02E094
:1028A00000BF00E000BFE837BD4680BD80B483B004
:1028B00000AF786000BF0C37BD465DF8047B704701
:1028C00080B483B000AF786000BF0C37BD465DF8C0
:1028D000047B704780B483B000AF786000BF0C37D2
:1028E000BD465DF8047B704780B483B000AF78606C
:1028F0000B467B8000BF0C37BD465DF8047B7047FC
:1029000080B586B000AFF860B9603B601346FB71DC
:102910003BE03B6AB3F1FF3F37D0FEF7D1F9024607
:102920003B68D31A3A6A9A4202D33B6A002B01D120
:1029300003233AE0FB681B68DB6803F00403002B09
:1029400023D0BB68802B20D0BB68402B1DD0FB68F8
:102950001B681B6803F00803082B16D100237B615A
:10296000FB681B681B687B61FB681B685B687B619D
:102970007B69F86800F01DF8FB6808225A64FB6860
:10298000002283F8402001230FE0FB681B681A68CF
:10299000BB681340BA689A420CBF01230023DBB224
:1029A0001A46FB799A42B4D0002318461837BD4620
:1029B00080BD80B495B000AF78607B681B680C3335
:1029C0007B637B6B53E8003F3B633B6B23F490736B
:1029D000FB647B681B680C33FA6C3A64FB63F96B2D
:1029E0003A6C41E80023BB63BB6B002BE5D17B68ED
:1029F0001B6814333B623B6A53E8003FFB61FB6991
:102A000023F00103BB647B681B681433BA6CFA6261
:102A1000BB62B96AFA6A41E800237B627B6A002BD9
:102A2000E5D17B681B6B012B19D17B681B680C33CC
:102A3000FB60FB6853E8003FBB60BB6823F01003FA
:102A40007B647B681B680C337A6CBA617B61796943
:102A5000BA6941E800233B613B69002BE5D17B6803
:102A6000202283F842207B6800221A6300BF54377B
:102A7000BD465DF8047B704780B584B000AF7860D8
:102A80007B689B6BFB60FB680022DA85FB68002299
:102A9000DA84F868FFF71EFF00BF1037BD4680BD1F
:102AA00080B485B000AF78607B6893F84130DBB2CA
:102AB000212B3ED17B689B68B3F5805F14D17B6886
:102AC0001B69002B10D17B681B6AFB60FB681B88AD
:102AD0001A467B681B68C2F308025A607B681B6A4F
:102AE0009A1C7B681A6208E07B681B6A591C7A682A
:102AF00011621A787B681B685A607B68DB8C9BB21A
:102B0000013B9BB27A681946D184002B0FD17B68B8
:102B10001B68DA687B681B6822F08002DA607B68D9
:102B20001B68DA687B681B6842F04002DA600023A9
:102B300000E0022318461437BD465DF8047B704759
:102B400080B582B000AF78607B681B68DA687B680C
:102B50001B6822F04002DA607B68202283F8412063
:102B60007868FFF7A3FE002318460837BD4680BDEE
:102B700080B58CB000AF78607B6893F84230DBB2F0
:102B8000222B40F0AE807B689B68B3F5805F17D145
:102B90007B681B69002B13D10023FB627B689B6A57
:102BA000BB627B681B685B689BB2C3F308039AB285
:102BB000BB6A1A807B689B6A9A1C7B689A6226E0D3
:102BC0007B689B6AFB620023BB627B689B68B3F5F2
:102BD000805F07D07B689B68002B0AD17B681B69EC
:102BE000002B06D17B681B685B68DAB2FB6A1A703F
:102BF00008E07B681B685B68DBB203F07F03DAB236
:102C0000FB6A1A707B689B6A5A1C7B689A627B68B5
:102C1000DB8D9BB2013B9BB27A681946D185002BB4
:102C20005DD17B681B68DA687B681B6822F0200234
:102C3000DA607B681B68DA687B681B6822F4807244
:102C4000DA607B681B685A697B681B6822F00102A6
:102C50005A617B68202283F842207B6800225A63F5
:102C60007B681B6B012B35D17B6800221A637B6864
:102C70001B680C337B617B6953E8003F3B613B6918
:102C800023F010037B627B681B680C337A6A3A621C
:102C9000FB61F9693A6A41E80023BB61BB69002B1B
:102CA000E5D17B681B681B6803F01003102B0AD169
:102CB0000023FB607B681B681B68FB607B681B68EC
:102CC0005B68FB60FB687B689B8D19467868FFF743
:102CD0000BFE02E07868FFF7F3FD002302E000231B
:102CE00000E0022318463037BD4680BD2DE9B04FC5
:102CF000C0B000AFC7F8F400D7F8F4301B681B6908
:102D000023F44050D7F8F430D968D7F8F4301A6873
:102D100040EA01031361D7F8F4309A68D7F8F43029
:102D20001B691A43D7F8F4305B691A43D7F8F430BB
:102D3000DB691343C7F8F830D7F8F4301B68DB6859
:102D400023F4164121F00C01D7F8F4301A68D7F8B3
:102D5000F8300B43D360D7F8F4301B685B6923F479
:102D60004070D7F8F4309969D7F8F4301A6840EA1F
:102D700001035361D7F8F4301A688F4B9A4205D09B
:102D8000D7F8F4301A688D4B9A4204D1FEF738FF19
:102D9000C7F8FC0003E0FEF71FFFC7F8FC00D7F8F8
:102DA000F430DB69B3F5004F40F00C81D7F8FC300C
:102DB0000022C7F8E830C7F8EC20D7E93A452246A8
:102DC0002B469118B9655B41FB65D7E9162321466F
:102DD00012EB0108294643EB01094FF000024FF0C6
:102DE00000034FEAC90343EA58734FEAC80290460A
:102DF0009946234618EB0303C7F8E0302B4649EB0E
:102E00000303C7F8E430D7F8F4305B680022C7F852
:102E1000D830C7F8DC20D7E936120B46DB183B6503
:102E2000134642EB03037B65D7E91423D7E9380146
:102E3000FDF71EFA02460B46614BA3FB02235B091A
:102E40001C01D7F8FC300022C7F8D030C7F8D420D6
:102E5000D7E9348942464B469118B9645B41FB641B
:102E6000D7E91223414612EB010A494643EB010B15
:102E70004FF000024FF000034FEACB0343EA5A73CE
:102E80004FEACA0292469B4643461AEB0303C7F831
:102E9000C8304B464BEB0303C7F8CC30D7F8F430BF
:102EA0005B680022C7F8C030C7F8C420D7E93012E9
:102EB0000B46DB183B64134642EB03037B64D7E904
:102EC0001023D7E93201FDF7D3F902460B4611462C
:102ED0003B4BA3FB01235B09642202FB03F3CB1AE8
:102EE000DB0003F13202364BA3FB02235B095B00DC
:102EF00003F4F8731C44D7F8FC300022C7F8B8304C
:102F0000C7F8BC20D7E92E8942464B469118B963D1
:102F10005B41FB63D7E90E234146511839634946AB
:102F20004B417B634FF000024FF00003D7E90CAB3D
:102F30005946CB00514643EA51735146CA001046E8
:102F40001946034642469B18C7F8B0304B460A461E
:102F500042EB0303C7F8B430D7F8F4305B680022C3
:102F6000C7F8A830C7F8AC20D7E92A120B46DB18FF
:102F7000BB62134642EB0303FB62D7E90A23D7E99E
:102F80002C01FDF775F902460B460D4BA3FB02130E
:102F90005B09642101FB03F3D31ADB003233084AD7
:102FA000A2FB03235B0903F00702D7F8F4301B6888
:102FB00022449A6006E100BF001001400014014065
:102FC0001F85EB51D7F8FC300022C7F8A030C7F8B6
:102FD000A420D7E9288942464B46911839625B41C3
:102FE0007B62D7E9082341465418494643EB010563
:102FF0004FF000024FF00003EB0043EA5473E2008D
:1030000014461D464346E318C7F898304B4645EB37
:103010000303C7F89C30D7F8F4305B680022C7F888
:103020009030C7F894204FF000024FF00003D7E92A
:10303000244529468B00214643EA917321468A00A4
:10304000D7E92601FDF714F902460B46604BA3FBB6
:1030500002235B091C01D7F8FC300022C7F8883036
:10306000C7F88C20D7E9228942464B469118B961AE
:103070005B41FB61D7E90623414651183961494656
:103080004B417B614FF000024FF00003D7E904ABE6
:103090005946CB00514643EA51735146CA00104687
:1030A0001946034642469B18C7F880304B460A46ED
:1030B00042EB0303C7F88430D7F8F4305B68002292
:1030C000BB67FA674FF000024FF00003D7E91E8993
:1030D00049468B00414643EA917341468A00D7E94D
:1030E0002001FDF7C5F802460B461146384BA3FBFD
:1030F00001235B09642202FB03F3CB1A1B01323369
:10310000334AA2FB03235B0903F0F0031C44D7F806
:10311000FC3000223B677A67D7E91C8942464B4660
:103120009118B9605B41FB60D7E902234146511811
:10313000396049464B417B604FF000024FF000037D
:10314000D7E900AB5946CB00514643EA517351468B
:10315000CA0010461946034642469B18BB664B46BA
:103160000A4642EB0303FB66D7F8F4305B680022A3
:103170003B667A664FF000024FF00003D7E91889EA
:1031800049468B00414643EA917341468A00D7E99C
:103190001A01FDF76DF802460B460D4BA3FB021317
:1031A0005B09642101FB03F3D31A1B013233084A84
:1031B000A2FB03235B0903F00F02D7F8F4301B686E
:1031C00022449A6000BF07F58077BD46BDE8B08F06
:1031D0001F85EB5180B485B000AF0346FB80002310
:1031E000FB60B7F90630842B05D0B7F90620FB68E1
:1031F00013440333FB60FB6818461437BD465DF883
:10320000047B704780B483B000AFEFF305837B602D
:103210007B68002B14BF01230023DBB218460C3758
:10322000BD465DF8047B704780B500AF01F004F83F
:103230000023184680BDF0B589B004AF78603960CE
:103240007B685B69002B20D07B689B69002B1CD0BE
:103250007B685C687B681D687B681E697B68B3F966
:1032600008301846FFF7B6FF01467B685B697A684D
:1032700092690292019300913B68324629462046AA
:1032800000F046FE0346FB601CE07B685C687B68E0
:103290001D687B681B699EB27B68B3F908301846CD
:1032A000FFF798FF024607F10C03019300923B6879
:1032B00032462946204600F088FE0346012B01D005
:1032C000002300E0FB6818461437BD46F0BD80B50A
:1032D00086B002AF786039607B685B68002B0FD0E6
:1032E0003B68012B0AD17B685B68032200920022B5
:1032F0000021012000F088F9034616E0002314E0C5
:103300003B68012B10D103220021012000F0F4F9C9
:10331000F860FB68002B05D0002300220021F8682C
:1033200000F044FAFB6800E0002318461037BD4661
:1033300080BD000080B584B000AF786039600023A4
:10334000BB607B68002B01D180233AE00023FB6047
:103350003B68B3F1FF3F03D14FF0FF33FB6009E05F
:103360003B68002B06D03B68FB60FB68002B01D15B
:103370000123FB60FFF746FF0346002B17D007F140
:1033800008031A460021786800F01AFC0346012B56
:1033900001D0FF2315E0BB68002B11D00B4B4FF081
:1033A00080521A60BFF34F8FBFF36F8F08E0F96848
:1033B000786800F0F9FA0346012B01D0FF2300E002
:1033C000002318461037BD4680BD00BF04ED00E065
:1033D00080B483B000AF78607B6803F108027B683B
:1033E0005A607B684FF0FF329A607B6803F10802F5
:1033F0007B68DA607B6803F108027B681A617B688E
:1034000000221A6000BF0C37BD465DF8047B704790
:1034100080B483B000AF78607B6800221A6100BF7F
:103420000C37BD465DF8047B704780B485B000AFB3
:10343000786039607B685B68FB603B68FA685A605B
:10344000FB689A683B689A60FB689B683A685A60B8
:10345000FB683A689A603B687A681A617B681B6807
:103460005A1C7B681A6000BF1437BD465DF8047BA8
:10347000704780B485B000AF786039603B681B68E6
:10348000BB60BB68B3F1FF3F03D17B681B69FB6086
:103490000CE07B680833FB6002E0FB685B68FB6064
:1034A000FB685B681B68BA689A42F6D2FB685A6888
:1034B0003B685A603B685B683A689A603B68FA68A8
:1034C0009A60FB683A685A603B687A681A617B6860
:1034D0001B685A1C7B681A6000BF1437BD465DF834
:1034E000047B704780B485B000AF78607B681B694F
:1034F000FB607B685B687A6892689A607B689B680F
:103500007A6852685A60FB685B687A689A4203D1AD
:103510007B689A68FB685A607B6800221A61FB68C6
:103520001B685A1EFB681A60FB681B681846143734
:10353000BD465DF8047B704780B584B000AF78600D
:1035400039607B68FB60FB68002B0AD14FF05003A9
:1035500083F31188BFF36F8FBFF34F8FBB6000BF42
:10356000FEE701F0B7FDFB681A68FB68DB6BF968E2
:10357000096C01FB03F31A44FB689A60FB680022A4
:103580009A63FB681A68FB685A60FB681A68FB68F4
:10359000DB6B013BF968096C01FB03F31A44FB6820
:1035A000DA60FB68FF2283F84420FB68FF2283F87F
:1035B00045203B68002B14D1FB681B69002B1AD0F7
:1035C000FB681033184601F079F80346002B12D03F
:1035D0000C4B4FF080521A60BFF34F8FBFF36F8FC9
:1035E00009E0FB6810331846FFF7F2FEFB6824334E
:1035F0001846FFF7EDFE01F09DFD01231846103738
:10360000BD4680BD04ED00E080B58EB002AFF8602D
:10361000B9607A603B60FB68002B0AD14FF0500321
:1036200083F31188BFF36F8FBFF34F8FBB6200BF6F
:10363000FEE73B68002B0AD14FF0500383F311885B
:10364000BFF36F8FBFF34F8F7B6200BFFEE77B68D6
:10365000002B02D0BB68002B01D0012300E0002327
:10366000002B0AD14FF0500383F31188BFF36F8F03
:10367000BFF34F8F3B6200BFFEE77B68002B02D198
:10368000BB68002B01D1012300E00023002B0AD1ED
:103690004FF0500383F31188BFF36F8FBFF34F8F49
:1036A000FB6100BFFEE748237B617B69482B0AD0A2
:1036B0004FF0500383F31188BFF36F8FBFF34F8F29
:1036C000BB6100BFFEE77B693B68FB62FB6A002BC6
:1036D0000DD0FB6A012283F8462097F83820FB6A58
:1036E000009313467A68B968F86800F03FF8FB6AFF
:1036F00018463037BD4680BD80B58AB002AFF8604D
:10370000B9601346FB71FB68002B0AD14FF05003E0
:1037100083F31188BFF36F8FBFF34F8F3B6100BFFF
:10372000FEE7FB68BA6802FB03F3FB61FB69483301
:10373000184601F0F1FDB861BB69002B11D0BB69DF
:103740007B617B6948337B61BB69002283F846203B
:10375000FA79BB69009313467A69B968F86800F092
:1037600005F8BB6918462037BD4680BD80B584B0DA
:1037700000AFF860B9607A60FB70BB68002B03D1C2
:10378000BB69BA691A6002E0BB697A681A60BB69F2
:10379000FA68DA63BB69BA681A640121B869FFF78D
:1037A000CBFE00BF1037BD4680BD000080B58EB097
:1037B00000AFF860B9607A603B6000237B63FB6810
:1037C0003B633B6B002B0AD14FF0500383F311880E
:1037D000BFF36F8FBFF34F8FBB6200BFFEE7BB68C5
:1037E000002B03D13B6B1B6C002B01D1012300E0AC
:1037F0000023002B0AD14FF0500383F31188BFF34D
:103800006F8FBFF34F8F7B6200BFFEE73B68022BD9
:1038100003D13B6BDB6B012B01D1012300E00023C3
:10382000002B0AD14FF0500383F31188BFF36F8F41
:10383000BFF34F8F3B6200BFFEE701F0FBF803468A
:10384000002B02D17B68002B01D1012300E0002373
:10385000002B0AD14FF0500383F31188BFF36F8F11
:10386000BFF34F8FFB6100BFFEE701F033FC3B6B02
:103870009A6B3B6BDB6B9A4202D33B68022B29D1DC
:103880003A68B968386B00F033FAF8623B6B5B6AF0
:10389000002B10D03B6B2433184600F00FFF03467B
:1038A000002B13D03F4B4FF080521A60BFF34F8F65
:1038B000BFF36F8F0AE0FB6A002B07D0394B4FF044
:1038C00080521A60BFF34F8FBFF36F8F01F032FC4D
:1038D000012363E07B68002B03D101F02BFC002364
:1038E0005CE07B6B002B06D107F11403184600F057
:1038F00047FF01237B6301F01DFC00F0FDFC01F09C
:10390000E9FB3B6B93F844305BB2B3F1FF3F03D16B
:103910003B6B002283F844203B6B93F845305BB24D
:10392000B3F1FF3F03D13B6B002283F8452001F048
:1039300001FC3A1D07F114031146184600F036FF4A
:103940000346002B24D1386B00F0CAFA0346002B43
:1039500018D03B6B10337A681146184600F08AFE87
:10396000386B00F055FA00F0D5FC0346002B7FF4CD
:103970007CAF0C4B4FF080521A60BFF34F8FBFF3F8
:103980006F8F72E7386B00F043FA00F0C3FC6CE70E
:10399000386B00F03DFA00F0BDFC002318463837C4
:1039A000BD4680BD04ED00E080B58EB000AF78600C
:1039B000396000237B637B68FB6200233B63FB6A07
:1039C000002B0AD14FF0500383F31188BFF36F8FA0
:1039D000BFF34F8F3B6200BFFEE7FB6A1B6C002BFF
:1039E0000AD04FF0500383F31188BFF36F8FBFF3FA
:1039F0004F8FFB6100BFFEE701F01CF80346002B70
:103A000002D13B68002B01D1012300E00023002BF1
:103A10000AD14FF0500383F31188BFF36F8FBFF3C8
:103A20004F8FBB6100BFFEE701F054FBFB6A9B6B4D
:103A3000BB62BB6A002B24D0BB6A5A1EFB6A9A6326
:103A4000FB6A1B68002B04D101F09CF90246FB6A5B
:103A50009A60FB6A1B69002B0FD0FB6A1033184673
:103A600000F02CFE0346002B07D0544B4FF0805241
:103A70001A60BFF34F8FBFF36F8F01F05BFB012321
:103A800097E03B68002B11D13B6B002B0AD04FF025
:103A9000500383F31188BFF36F8FBFF34F8F7B61A8
:103AA00000BFFEE701F046FB002382E07B6B002BAA
:103AB00006D107F10C03184600F062FE01237B6378
:103AC00001F038FB00F018FC01F004FBFB6A93F8EE
:103AD00044305BB2B3F1FF3F03D1FB6A002283F8AD
:103AE0004420FB6A93F845305BB2B3F1FF3F03D14A
:103AF000FB6A002283F8452001F01CFB3A4607F1DF
:103B00000C031146184600F051FE0346002B32D13B
:103B1000F86A00F0CFF90346002B26D0FB6A1B6839
:103B2000002B09D101F0D6FAFB6A9B68184600F019
:103B30009FFF386301F0FEFAFB6A24333A681146AE
:103B4000184600F097FDF86A00F062F900F0E2FB19
:103B50000346002B7FF468AF184B4FF080521A6079
:103B6000BFF34F8FBFF36F8F5EE7F86A00F050F935
:103B700000F0D0FB58E7F86A00F04AF900F0CAFB01
:103B8000F86A00F097F90346002B3FF44DAF3B6B0A
:103B9000002B0DD001F09EFAF86A00F091F87862DF
:103BA000FB6A9B68796A184601F05EF801F0C2FA78
:103BB000002318463837BD4680BD00BF04ED00E045
:103BC00080B58EB000AFF860B9607A60FB683B6387
:103BD0003B6B002B0AD14FF0500383F31188BFF3E6
:103BE0006F8FBFF34F8F3B6200BFFEE7BB68002BB8
:103BF00003D13B6B1B6C002B01D1012300E00023A0
:103C0000002B0AD14FF0500383F31188BFF36F8F5D
:103C1000BFF34F8FFB6100BFFEE701F03DFBEFF309
:103C200011824FF0500383F31188BFF36F8FBFF3FE
:103C30004F8FBA617B61BB69FB623B6B9B6BBB6265
:103C4000BB6A002B2FD03B6B93F8443087F82730AA
:103C5000B968386B00F0B6F8BB6A5A1E3B6B9A63C2
:103C600097F92730B3F1FF3F12D13B6B1B69002B53
:103C700016D03B6B1033184600F020FD0346002B96
:103C80000ED07B68002B0BD07B6801221A6007E006
:103C900097F827300133DBB25AB23B6B83F84420EC
:103CA00001237B6301E000237B63FB6A3B613B698B
:103CB00083F3118800BF7B6B18463837BD4680BD43
:103CC00080B485B000AF78607B685B6A002B06D05B
:103CD0007B681B6B1B68C3F10703FB6001E00023DB
:103CE000FB60FB6818461437BD465DF8047B7047DF
:103CF00080B586B000AFF860B9607A6000237B6160
:103D0000FB689B6B3B61FB681B6C002B0DD1FB6858
:103D10001B68002B4DD1FB689B68184600F01EFF06
:103D20007861FB6800229A6043E07B68002B19D120
:103D3000FB685868FB681B6C1A46B96801F069FE9D
:103D4000FB685A68FB681B6C1A44FB685A60FB6886
:103D50005A68FB689B689A422BD3FB681A68FB6819
:103D60005A6026E0FB68D868FB681B6C1A46B96885
:103D700001F04FFEFB68DA68FB681B6C5B421A447B
:103D8000FB68DA60FB68DA68FB681B689A4207D256
:103D9000FB689A68FB681B6C5B421A44FB68DA603C
:103DA0007B68022B05D13B69002B02D03B69013BAC
:103DB0003B613B695A1CFB689A637B69184618375C
:103DC000BD4680BD80B582B000AF786039607B6849
:103DD0001B6C002B18D07B68DA687B681B6C1A445C
:103DE0007B68DA607B68DA687B689B689A4203D3F9
:103DF0007B681A687B68DA607B68D9687B681B6CB3
:103E00001A46386801F005FE00BF0837BD4680BD80
:103E100080B584B000AF786001F05CF97B6893F8FE
:103E20004530FB7311E07B685B6A002B12D07B6826
:103E30002433184600F042FC0346002B01D000F06A
:103E400017FDFB7B013BDBB2FB7397F90F30002BB7
:103E5000E9DC00E000BF7B68FF2283F8452001F029
:103E600069F901F037F97B6893F84430BB7311E0CE
:103E70007B681B69002B12D07B681033184600F05A
:103E80001DFC0346002B01D000F0F2FCBB7B013B84
:103E9000DBB2BB7397F90E30002BE9DC00E000BF0A
:103EA0007B68FF2283F8442001F044F900BF1037FB
:103EB000BD4680BD80B584B000AF786001F00AF9DE
:103EC0007B689B6B002B02D10123FB6001E0002388
:103ED000FB6001F02FF9FB6818461037BD4680BD26
:103EE00080B584B000AF786001F0F4F87B689A6B1D
:103EF0007B68DB6B9A4202D10123FB6001E0002367
:103F0000FB6001F017F9FB6818461037BD4680BD0D
:103F100080B58EB004AFF860B9607A603B607B6BAF
:103F2000002B0AD14FF0500383F31188BFF36F8F3A
:103F3000BFF34F8F3B6200BFFEE7BB6B002B0AD184
:103F40004FF0500383F31188BFF36F8FBFF34F8F90
:103F5000FB6100BFFEE754233B613B69542B0AD051
:103F60004FF0500383F31188BFF36F8FBFF34F8F70
:103F7000BB6100BFFEE73B69BB6B002B1ED07B6BB8
:103F8000002B1BD0BB6B7B627B6A7A6B1A637B6AEC
:103F9000022283F85120002303937B6A029307F1E6
:103FA000140301933B6B00933B687A68B968F86827
:103FB00000F050F8786A00F0D5F801E000237B614A
:103FC0007B6918462837BD4680BD80B58CB004AFEC
:103FD000F860B9603B601346FB80FB889B00184685
:103FE00001F09AF978617B69002B0ED0542001F022
:103FF00093F9F861FB69002B03D0FB697A691A63B6
:1040000005E0786901F054FA01E00023FB61FB69E7
:10401000002B17D0FB69002283F85120FA88002377
:104020000393FB690293FB6A0193BB6A00933B68AD
:10403000B968F86800F00EF8F86900F093F8012309
:10404000BB6102E04FF0FF33BB61BB69184620370C
:10405000BD4680BD80B588B000AFF860B9607A60B9
:104060003B603B6B1A6B7B6803F18043013B9B0019
:104070001344BB61BB6923F00703BB61BB6903F059
:104080000703002B0AD04FF0500383F31188BFF3CE
:104090006F8FBFF34F8F7B6100BFFEE7BB68002BC4
:1040A0001FD00023FB6112E0BA68FB691344197842
:1040B0003A6BFB69134434330A461A70BA68FB69D9
:1040C00013441B78002B06D0FB690133FB61FB69AD
:1040D0000F2BE9D900E000BF3B6B002283F843209F
:1040E00003E03B6B002283F83420BB6A062B01D926
:1040F0000623BB623B6BBA6ADA623B6BBA6A5A64EC
:104100003B6B00229A643B6B04331846FFF780F93F
:104110003B6B18331846FFF77BF93B6B3A6B1A6120
:10412000BB6AC3F107023B6B9A613B6B3A6B5A6205
:104130003B6B0022DA643B6B002283F850203A6824
:10414000F968B86900F098FE02463B6B1A60FB6A9A
:10415000002B02D0FB6A3A6B1A6000BF2037BD46C5
:1041600080BD000080B582B000AF786000F0B2FF83
:104170002A4B1B680133294A1360294B1B68002B0B
:1041800009D1274A7B681360244B1B68012B10D18F
:1041900000F092FB0DE0234B1B68002B09D1204B54
:1041A0001B68DA6A7B68DB6A9A4202D81C4A7B6821
:1041B00013601D4B1B6801331B4A13607B68DB6A6D
:1041C00001229A40194B1B681343184A13607B68FD
:1041D000DA6A13469B0013449B00154A1A447B6815
:1041E000043319461046FFF720F900F0A3FF0D4BEA
:1041F0001B68002B0ED00A4B1B68DA6A7B68DB6AEF
:104200009A4207D20B4B4FF080521A60BFF34F8F88
:10421000BFF36F8F00BF0837BD4680BD800400200C
:10422000800300208C0400209C04002088040020CF
:104230008403002004ED00E080B58AB004AF0023C1
:10424000BB6000237B603A46391D07F1080318461E
:10425000FCF78CF939687B68BA68029201930023F5
:10426000009300230A461E491E48FFF751FE0346ED
:104270001D4A13601C4B1B68002B02D001237B617D
:1042800001E000237B617B69012B16D14FF05003C5
:1042900083F31188BFF36F8FBFF34F8F3B6100BF74
:1042A000124B4FF0FF321A60114B01221A60114B72
:1042B00000221A6000F06CFE0EE07B69B3F1FF3F54
:1042C0000AD14FF0500383F31188BFF36F8FBFF310
:1042D0004F8FFB6000BFFEE700BF1837BD4680BDB3
:1042E0000866000889480008A4040020A0040020F3
:1042F0008C0400208404002080B400AF044B1B68B1
:104300000133034A136000BFBD465DF8047B70476C
:10431000A804002080B584B000AF0023FB60002318
:10432000BB60414B1B68002B0AD14FF0500383F355
:104330001188BFF36F8FBFF34F8F3B6000BFFEE765
:1043400000F0C8FE384B1B68013B374A1360364B00
:104350001B68002B61D1354B1B68002B5DD02EE014
:10436000334BDB68DB68FB60FB6818331846FFF7EC
:10437000B9F8FB6804331846FFF7B4F8FB68DB6A4A
:1043800001229A402B4B1B6813432A4A1360FB6897
:10439000DA6A13469B0013449B00274A1A44FB68C1
:1043A000043319461046FFF740F8FB68DA6A234BDE
:1043B0001B68DB6A9A4202D3214B01221A601C4B14
:1043C0001B68002BCCD1FB68002B01D000F012FB46
:1043D0001C4B1B687B607B68002B10D000F036F80C
:1043E0000346002B02D0164B01221A607B68013B6A
:1043F0007B607B68002BF1D1124B00221A60104BBE
:104400001B68002B09D00123BB600F4B4FF080527B
:104410001A60BFF34F8FBFF36F8F00F08BFEBB6846
:1044200018461037BD4680BDA80400208004002037
:104430004004002088040020840300208003002022
:10444000940400209004002004ED00E080B586B0C4
:1044500000AF00237B614E4B1B68002B40F08E8029
:104460004C4B1B6801333B614A4A3B6913603B6913
:10447000002B20D1484B1B681B68002B0AD04FF043
:10448000500383F31188BFF36F8FBFF34F8F3B60EF
:1044900000BFFEE7404B1B68FB60404B1B683E4A79
:1044A00013603E4AFB6813603D4B1B6801333C4A76
:1044B000136000F09FFA3B4B1B683A699A4248D35D
:1044C000354B1B681B68002B04D1364B4FF0FF3275
:1044D0001A603EE0304B1B68DB68DB68BB60BB6882
:1044E0005B687B603A697B689A4203D22D4A7B689D
:1044F00013602EE0BB6804331846FEF7F3FFBB6879
:104500009B6A002B04D0BB6818331846FEF7EAFFFD
:10451000BB68DB6A01229A40234B1B681343224A83
:104520001360BB68DA6A13469B0013449B001F4A62
:104530001A44BB68043319461046FEF776FFBB6881
:10454000DA6A1B4B1B68DB6A9A42B9D301237B6191
:10455000B6E7174B1B68DA6A144913469B001344ED
:104560009B000B441B68012B01D901237B61114B7C
:104570001B68002B07D001237B6104E00E4B1B68F6
:1045800001330D4A13607B6918461837BD4680BD5C
:10459000A804002084040020380400203C040020EB
:1045A00098040020A0040020880400208403002038
:1045B00080030020940400209004002080B487B081
:1045C00000AF274B1B68002B03D0264B01221A603B
:1045D0003FE0244B00221A60234B1B68FB60FB6802
:1045E000B3FA83F3FB72FB7AC3F11F037B611F49AC
:1045F0007A6913469B0013449B000B441B68002BF5
:104600000AD14FF0500383F31188BFF36F8FBFF3CC
:104610004F8F7B6000BFFEE77A6913469B0013440F
:104620009B00124A13443B613B695B685A683B69D3
:104630005A603B695A683B6908339A4204D13B6926
:104640005B685A683B695A603B695B68DB68084A8B
:10465000136000BF1C37BD465DF8047B704700BF88
:10466000A804002094040020880400208403002073
:104670008003002080B584B000AF786039607B682B
:10468000002B0AD14FF0500383F31188BFF36F8FD3
:10469000BFF34F8FFB6000BFFEE7074B1B6818336B
:1046A00019467868FEF7E5FE0121386800F07EFBC8
:1046B00000BF1037BD4680BD8003002080B586B0A6
:1046C00000AF78607B68DB68DB683B613B69002B8F
:1046D0000AD14FF0500383F31188BFF36F8FBFF3FC
:1046E0004F8FFB6000BFFEE73B6918331846FEF7AB
:1046F000F9FE1D4B1B68002B1CD13B690433184687
:10470000FEF7F0FE3B69DB6A01229A40174B1B68FB
:104710001343164A13603B69DA6A13469B0013443D
:104720009B00134A1A443B69043319461046FEF7AE
:104730007CFE05E03B69183319460E48FEF775FE0E
:104740003B69DA6A0C4B1B68DB6A9A4205D9012384
:104750007B610A4B01221A6001E000237B617B69C7
:1047600018461837BD4680BDA804002088040020E4
:1047700084030020400400208003002094040020D3
:1047800080B483B000AF7860064B1A687B681A600B
:10479000054B1A687B685A6000BF0C37BD465DF850
:1047A000047B7047980400208404002080B588B002
:1047B00000AF786039607B68002B0AD14FF050035E
:1047C00083F31188BFF36F8FBFF34F8F3B6100BF3F
:1047D000FEE73B68002B0AD14FF0500383F31188AA
:1047E000BFF36F8FBFF34F8FFB6000BFFEE700F09A
:1047F00071FC1D4B1B68BB617B685B68BA69D31A8F
:104800007B613B681B68B3F1FF3F02D10023FB6172
:1048100023E07B681A68154B1B689A4207D07B68B7
:104820005B68BA699A4202D30123FB6115E03B68D9
:104830001B687A699A420BD23B681A687B69D21A64
:104840003B681A607868FFF79BFF0023FB6104E078
:104850003B6800221A600123FB6100F06BFCFB69DE
:1048600018462037BD4680BD8404002098040020EF
:1048700080B400AF034B01221A6000BFBD465DF853
:10488000047B70479404002080B582B000AF78604C
:1048900000F052F8064B1B68012BF9D9054B4FF07D
:1048A00080521A60BFF34F8FBFF36F8FF0E700BFE6
:1048B0008403002004ED00E080B582B000AF002347
:1048C0007B600CE07A6813469B0013449B00124AFD
:1048D00013441846FEF77CFD7B6801337B607B68E0
:1048E000062BEFD90D48FEF773FD0D48FEF770FD5E
:1048F0000C48FEF76DFD0C48FEF76AFD0B48FEF70D
:1049000067FD0B4B054A1A600A4B054A1A6000BF47
:104910000837BD4680BD00BF84030020100400207E
:104920002404002040040020540400206C040020D3
:10493000380400203C04002080B582B000AF19E0AC
:1049400000F0C8FB104BDB68DB687B607B680433DE
:104950001846FEF7C7FD0D4B1B68013B0B4A136061
:104960000B4B1B68013B0A4A136000F0E3FB7868BD
:1049700000F010F8064B1B68002BE1D100BF00BF10
:104980000837BD4680BD00BF5404002080040020CD
:104990006804002080B584B000AF78607B6893F82D
:1049A0005130002B08D17B681B6B184600F080FD4E
:1049B000786800F07DFD18E07B6893F85130012B9A
:1049C00003D1786800F074FD0FE07B6893F85130F4
:1049D000022B0AD04FF0500383F31188BFF36F8F7F
:1049E000BFF34F8FFB6000BFFEE700BF1037BD462F
:1049F00080BD000080B483B000AF0C4B1B681B6807
:104A0000002B04D10A4B4FF0FF321A6008E0074B2D
:104A10001B68DB68DB687B607B685B68044A13604B
:104A200000BF0C37BD465DF8047B7047380400209A
:104A3000A004002080B483B000AF0B4B1B68002B98
:104A400002D101237B6008E0084B1B68002B02D1D8
:104A500002237B6001E000237B607B6818460C37F3
:104A6000BD465DF8047B70478C040020A80400203C
:104A700080B584B000AF78607B68BB600023FB60CA
:104A80007B68002B5ED0BB68DA6A314B1B68DB6A3F
:104A90009A424ED2BB689B69002B06DB2C4B1B68ED
:104AA000DB6AC3F10702BB689A61BB685969BB68DE
:104AB000DA6A13469B0013449B00264A134499422A
:104AC0002FD1BB6804331846FEF70CFD0346002BBC
:104AD0000AD1BB68DB6A012202FA03F3DA431E4BF8
:104AE0001B6813401C4A1360194B1B68DA6ABB68C9
:104AF000DA62BB68DB6A01229A40174B1B681343DA
:104B0000154A1360BB68DA6A13469B0013449B0086
:104B1000104A1A44BB68043319461046FEF785FC58
:104B200004E00B4B1B68DA6ABB68DA620123FB60A6
:104B300008E0BB685A6C064B1B68DB6A9A4201D2DC
:104B40000123FB60FB6818461037BD4680BD00BFDF
:104B500080030020840300208804002080B586B0F4
:104B600000AF78607B683B6100237B617B68002B32
:104B70006ED03A4B1B683A699A420AD04FF0500304
:104B800083F31188BFF36F8FBFF34F8FFB6000BFBC
:104B9000FEE73B699B6C002B0AD14FF0500383F377
:104BA0001188BFF36F8FBFF34F8FBB6000BFFEE76D
:104BB0003B699B6C5A1E3B699A643B69DA6A3B69A4
:104BC0005B6C9A4244D03B699B6C002B40D13B69A3
:104BD00004331846FEF786FC0346002B15D13B69CB
:104BE000DA6A1F4913469B0013449B000B441B6861
:104BF000002B0AD13B69DB6A012202FA03F3DA4394
:104C0000184B1B681340174A13603B695A6C3B6989
:104C1000DA623B69DB6AC3F107023B699A613B696F
:104C2000DB6A01229A400F4B1B6813430D4A136045
:104C30003B69DA6A13469B0013449B00084A1A44F6
:104C40003B69043319461046FEF7EFFB01237B61F5
:104C50007B6918461837BD4680BD00BF8003002021
:104C6000840300208804002080B588B000AF7860FD
:104C700039607B68BB6101237B617B68002B77D047
:104C8000BB699B6C002B0AD14FF0500383F3118852
:104C9000BFF36F8FBFF34F8FFB6000BFFEE7BB69B1
:104CA0005B6C3A689A4202D93B68FB6102E0BB69DF
:104CB0005B6CFB61BB69DB6AFA699A4258D0BB69DD
:104CC0009B6C7A699A4253D12B4B1B68BA699A4202
:104CD0000AD14FF0500383F31188BFF36F8FBFF3F6
:104CE0004F8FBB6000BFFEE7BB69DB6A3B61BB69FE
:104CF000FA69DA62BB699B69002B04DBFB69C3F1CB
:104D00000702BB699A61BB6959693A6913469B00FE
:104D100013449B00194A1344994229D1BB690433B7
:104D20001846FEF7DFFB0346002B0AD1BB69DB6A9E
:104D3000012202FA03F3DA43114B1B681340104AB5
:104D40001360BB69DB6A01229A400D4B1B68134359
:104D50000B4A1360BB69DA6A13469B0013449B003D
:104D6000064A1A44BB69043319461046FEF75DFB38
:104D700000BF2037BD4680BD800300208403002093
:104D80008804002080B400AF074B1B68002B04D0C0
:104D9000054B1B689A6C01329A64034B1B681846DA
:104DA000BD465DF8047B70478003002080B584B069
:104DB00000AF78603960294B1B68FB60284B1B688B
:104DC00004331846FEF78EFB0346002B0BD1244B11
:104DD0001B68DB6A012202FA03F3DA43214B1B68EA
:104DE0001340204A13607B68B3F1FF3F0AD13B6850
:104DF000002B07D01A4B1B68043319461A48FEF7DC
:104E000014FB26E0FA687B681344BB60144B1B68F4
:104E1000BA685A60BA68FB689A4209D2134B1A689A
:104E20000F4B1B68043319461046FEF722FB10E0B7
:104E30000F4B1A680A4B1B68043319461046FEF7DD
:104E400018FB0C4B1B68BA689A4202D2094ABB682D
:104E5000136000BF1037BD4680BD00BF8404002032
:104E600080030020880400206C0400203C04002003
:104E700038040020A004002080B485B000AFF860A2
:104E8000B9607A60FB68043BFB60FB684FF080729E
:104E90001A60FB68043BFB60BB6823F00102FB68FF
:104EA0001A60FB68043BFB600C4AFB681A60FB68F5
:104EB000143BFB607A68FB681A60FB68043BFB608C
:104EC000FB686FF002021A60FB68203BFB60FB6826
:104ED00018461437BD465DF8047B7047E14E000864
:104EE00080B485B000AF00237B60124B1B68B3F128
:104EF000FF3F0AD04FF0500383F31188BFF36F8F49
:104F0000BFF34F8FFB6000BFFEE74FF0500383F30A
:104F10001188BFF36F8FBFF34F8FBB6000BF00BF1F
:104F20007B68002BFCD000BF00BF1437BD465DF886
:104F3000047B70470C00002000000000000000000F
:104F4000074B19680868B0E8F04F80F30988BFF391
:104F50006F8F4FF0000080F311887047AFF300802F
:104F60008003002000BF00BF08480068006880F38D
:104F700008884FF0000080F3148862B661B6BFF372
:104F80004F8FBFF36F8F00DF00BF00BF08ED00E061
:104F900080B586B000AF464B1B68464A93420AD1A3
:104FA0004FF0500383F31188BFF36F8FBFF34F8F20
:104FB0003B6100BFFEE73E4B1B683F4A93420AD16C
:104FC0004FF0500383F31188BFF36F8FBFF34F8F00
:104FD000FB6000BFFEE7394B7B617B691B78DBB26E
:104FE0007B607B69FF221A707B691B78DBB2FB70E8
:104FF000FB78DBB203F05003DAB2314B1A70314B5D
:1050000007221A6009E02F4B1B68013B2D4A1360F1
:10501000FB78DBB25B00DBB2FB70FB78DBB203F04A
:105020008003802BEFD0274B1B68C3F10703042BB1
:105030000AD04FF0500383F31188BFF36F8FBFF393
:105040004F8FBB6000BFFEE71E4B1B681B021D4A53
:1050500013601C4B1B6803F4E0631A4A13607B68FF
:10506000DAB27B691A70184B1B68174A43F4700355
:105070001360154B1B68144A43F07043136000F033
:10508000DDF8124B00221A6000F0FCF8104B1B6890
:105090000F4A43F040431360FFF766FFFFF78EFAB5
:1050A000FFF71EFF002318461837BD4680BD00BF1E
:1050B00000ED00E071C20F4170C20F4100E400E05A
:1050C000AC040020B004002020ED00E00C00002023
:1050D00034EF00E080B483B000AF4FF0500383F3AF
:1050E0001188BFF36F8FBFF34F8F7B6000BF0F4BF3
:1050F0001B6801330D4A13600C4B1B68012B0FD149
:105100000B4B1B68DBB2002B0AD04FF0500383F32C
:105110001188BFF36F8FBFF34F8F3B6000BFFEE777
:1051200000BF0C37BD465DF8047B70470C000020C3
:1051300004ED00E080B483B000AF124B1B68002B7D
:105140000AD14FF0500383F31188BFF36F8FBFF381
:105150004F8F7B6000BFFEE70A4B1B68013B094A8B
:105160001360084B1B68002B05D100233B603B6894
:1051700083F3118800BF00BF0C37BD465DF8047B88
:10518000704700BF0C00002000000000000000007D
:10519000EFF30980BFF36F8F154B1A681EF0100FE5
:1051A00008BF20ED108A20E9F04F10602DE90900BA
:1051B0004FF0500080F31188BFF34F8FBFF36F8F14
:1051C000FFF7FCF94FF0000080F3118809BC196863
:1051D0000868B0E8F04F1EF0100F08BFB0EC108A5E
:1051E00080F30988BFF36F8F704700BFAFF3008073
:1051F0008003002000BF00BF80B582B000AF4FF039
:10520000500383F31188BFF36F8FBFF34F8F7B6021
:1052100000BFFFF71BF90346002B03D0064B4FF0EE
:1052200080521A6000233B603B6883F3118800BF03
:1052300000BF0837BD4680BD04ED00E080B400AF7C
:105240000B4B00221A600B4B00221A600A4B1B68A2
:105250000A4AA2FB03239B09094A013B1360044B42
:1052600007221A6000BFBD465DF8047B704700BF8F
:1052700010E000E018E000E000000020D34D6210D4
:1052800014E000E0DFF80C00016841F470010160F7
:10529000704700BF88ED00E080B485B000AFEFF349
:1052A0000583FB60FB680F2B14D9174AFB68134476
:1052B0001B78FB72154B1B78FA7A9A420AD24FF090
:1052C000500383F31188BFF36F8FBFF34F8F7B6061
:1052D00000BFFEE70E4B1B6803F4E0620D4B1B683A
:1052E0009A420AD94FF0500383F31188BFF36F8FAE
:1052F000BFF34F8F3B6000BFFEE700BF1437BD46D2
:105300005DF8047B704700BFF0E300E0AC040020D0
:105310000CED00E0B004002080B58AB000AF7860EA
:105320000023FB61FEF7E8FF5B4B1B68002B01D1FC
:1053300000F020F9594B1A687B681340002B40F0AD
:1053400093807B68002B1DD008227B6813447B6010
:105350007B6803F00703002B14D07B6823F007035E
:1053600008337B607B6803F00703002B0AD04FF003
:10537000500383F31188BFF36F8FBFF34F8F7B61AF
:1053800000BFFEE77B68002B6ED0454B1B687A6838
:105390009A4269D8434B3B62424B1B687B6204E0F4
:1053A0007B6A3B627B6A1B687B627B6A5B687A68AC
:1053B0009A4203D97B6A1B68002BF1D1364B1B68DC
:1053C0007A6A9A4250D03B6A1B6808221344FB61F8
:1053D0007B6A1A683B6A1A607B6A5A687B68D21AD1
:1053E00008235B009A421FD97A6A7B681344BB6129
:1053F000BB6903F00703002B0AD04FF0500383F37F
:105400001188BFF36F8FBFF34F8F3B6100BFFEE783
:105410007B6A5A687B68D21ABB695A607B6A7A6871
:105420005A60B86900F008F91D4B1A687B6A5B681E
:10543000D31A1B4A13601A4B1A681B4B1B689A42FB
:1054400003D2174B1B68184A13607B6A5A68134BC8
:105450001B681A437B6A5A607B6A00221A60134BEE
:105460001B680133114A1360FEF754FFFB6903F018
:105470000703002B0AD04FF0500383F31188BFF3CA
:105480006F8FBFF34F8FFB6000BFFEE7FB691846CD
:105490002837BD4680BD00BFBC400020D040002062
:1054A000C0400020B4400020C4400020C84000207C
:1054B00080B586B000AF78607B687B617B68002B2D
:1054C0004DD008235B427A6913447B617B693B6161
:1054D0003B695A68244B1B681340002B0AD14FF0DC
:1054E000500383F31188BFF36F8FBFF34F8FFB60BF
:1054F00000BFFEE73B691B68002B0AD04FF050034A
:1055000083F31188BFF36F8FBFF34F8FBB6000BF72
:10551000FEE73B695A68144B1B681340002B1ED0F2
:105520003B691B68002B1AD13B695A680E4B1B68FC
:10553000DB431A403B695A60FEF7DEFE3B695A685E
:105540000A4B1B681344094A1360386900F074F869
:10555000074B1B680133064A1360FEF7DBFE00BFF2
:105560001837BD4680BD00BFD0400020C04000209D
:10557000CC40002080B485B000AF4FF47053BB60C6
:10558000274BFB60FB6803F00703002B0CD0FB6884
:105590000733FB60FB6823F00703FB60BA68FB6816
:1055A000D31A1F4A1344BB60FB687B601D4A7B68AB
:1055B00013601C4B00225A607B68BA681344FB607E
:1055C0000822FB689B1AFB60FB6823F00703FB6063
:1055D000FB68154A1360144B1B6800225A60124B7B
:1055E0001B6800221A607B683B603B68FA68D21A2D
:1055F0003B685A600C4B1A683B681A603B685B68F2
:105600000A4A13603B685B68094A1360094B4FF014
:1056100000421A6000BF1437BD465DF8047B704736
:10562000B4040020B4400020BC400020C44000204E
:10563000C0400020D040002080B485B000AF78602A
:10564000284BFB6002E0FB681B68FB60FB681B6883
:105650007A689A42F7D8FB68BB60FB685B68BA68F7
:1056600013447A689A4208D1FB685A687B685B6881
:105670001A44FB685A60FB687B607B68BB607B6890
:105680005B68BA681A44FB681B689A4218D1FB68C9
:105690001A68154B1B689A420DD07B685A68FB68E4
:1056A0001B685B681A447B685A60FB681B681A6851
:1056B0007B681A6008E00C4B1A687B681A6003E08C
:1056C000FB681A687B681A60FA687B689A4202D0A5
:1056D000FB687A681A6000BF1437BD465DF8047B2A
:1056E000704700BFB4400020BC400020002310B52C
:1056F0000446C0E90033C0E9043383608181436616
:10570000C2818361194608225C3000F006F90D4B16
:1057100063620D4BA3620D4BE3620D4B23630D4B94
:1057200024629C4206D003F16802944202D0D03336
:105730009C4205D104F15800BDE8104000F066B964
:1057400010BD00BF95580008B7580008EF58000872
:1057500013590008D4400020024A0349034800F0CE
:1057600069B800BF10000020D56200081C000020AE
:1057700041680C4B994210B5044601D000F0AAFDD7
:10578000A168094B994202D0204600F0A3FDE168D0
:10579000064B994204D02046BDE8104000F09ABD67
:1057A00010BD00BFD44000203C410020A441002097
:1057B00010B50B4B0B4C0C4A1A60204600220421FA
:1057C000FFF794FF04F1680001220921FFF78EFF23
:1057D00004F1D0000222BDE810401221FFF786BF7D
:1057E0000C420020D440002059570008014800F026
:1057F0000EB900BF15420020014800F009B900BFF2
:105800001542002010B50446FFF7F0FF236A1BB1D4
:10581000BDE81040FFF7F0BF044B2362044B1B6848
:10582000002BF5D1FFF7C4FFF2E700BF7157000866
:105830000C4200202DE9F84307468846144600260E
:10584000D4E90195B9F1010905D52468002CF7D1F7
:105850003046BDE8F883AB89012B07D9B5F90E3086
:10586000013303D029463846C04706436835E9E787
:105870000FB407B5064904AB086853F8042B8168D8
:10588000019300F0F7F903B05DF804EB04B0704742
:105890006800002010B50C46B1F90E1000F068F851
:1058A0000028ABBF636DA3891B1823F48053ACBFE2
:1058B0006365A38110BD2DE9F0411F468B89DB058F
:1058C00005460C46164605D5B1F90E1002230022F6
:1058D00000F03CF8A389B4F90E1023F48053A3819F
:1058E00032463B462846BDE8F04100F053B810B5BB
:1058F0000C46B1F90E1000F029F8431CA38915BF1E
:10590000606523F4805343F48053A38118BFA381BF
:1059100010BDB1F90E1000F009B8024403469342DD
:1059200000D1704703F8011BF9E7000038B5064DB8
:105930000023044608462B60FBF7E5F8431C02D120
:105940002B6803B1236038BD1042002038B5074DE5
:1059500004460846114600222A601A46FBF7FAF868
:10596000431C02D12B6803B1236038BD10420020D4
:1059700038B5074D04460846114600222A601A46EB
:10598000FBF788F8431C02D12B6803B1236038BDB4
:105990001042002038B5074D044608461146002243
:1059A0002A601A46FBF793F8431C02D12B6803B117
:1059B000236038BD10420020014B1868704700BFBB
:1059C0006800002070B50D4D0D4C641BA41000261E
:1059D000A64209D10B4D0C4C00F0CEFD641BA41067
:1059E0000026A64205D170BD55F8043B9847013604
:1059F000EEE755F8043B98470136F2E76466000885
:105A000064660008646600086866000870477047AE
:105A100070470A44914200F1FF3300D1704710B53E
:105A200011F8014B03F8014F9142F9D110BD00006C
:105A300037B5002944D051F8043C0190002BA1F166
:105A40000404B8BFE41800F0DFF81E4A0198136898
:105A500033B96360146003B0BDE8304000F0DAB8D9
:105A6000A34208D9256861198B4201BF19685B6898
:105A700049192160EDE71A465B680BB1A342FAD9D8
:105A800011685518A5420BD1246821445418A3422B
:105A90001160E0D11C685B6853600C441460DAE765
:105AA00002D90C230360D6E7256861198B4204BF35
:105AB00019685B68636004BF491921605460CAE7D4
:105AC00003B030BD1842002070B50E4E0C46316850
:105AD000054611B900F0BCFC30602146284600F0B4
